:020000040800F2
:10000000804B002021020008DD040008690400087C
:10001000D904000849030008A106000800000000F8
:10002000000000000000000000000000890100083E
:100030004D03000800000000CD0100080D06000877
:100040003B0200083B0200083B0200083B0200089C
:100050003B0200083B0200083B0200083B0200088C
:100060003B0200083B0200083B0200083B0200087C
:100070003B0200083B0200083B0200083B0200086C
:100080003B0200083B0200083B0200083B0200085C
:100090003B0200083B0200083B0200083B0200084C
:1000A0003B0200083B0200083B0200083B0200083C
:1000B0003B0200083B0200083B0200083B0200082C
:1000C0003B0200083B0200083B0200083B0200081C
:1000D0003B0200083B0200083B0200083B0200080C
:1000E0003B0200083B0200083B02000800F002F857
:1000F00000F03AF80AA090E8000C82448344AAF188
:100100000107DA4501D100F02FF8AFF2090EBAE885
:100110000F0013F0010F18BFFB1A43F0010318473B
:10012000AC0F0000CC0F0000103A24BF78C878C193
:10013000FAD8520724BF30C830C144BF04680C60ED
:10014000704700000023002400250026103A28BF35
:1001500078C1FBD8520728BF30C148BF0B60704739
:100160001FB51FBD10B510BD00F07DF81146FFF79B
:10017000F7FF00F097FA00F09BF803B4FFF7F2FFE7
:1001800003BC00F0A3F80000224B19680868B0E82F
:10019000F00F80F30988BFF36F8F4FF0000080F3FA
:1001A00011884EF00D0E70470000000006480068F0
:1001B000006880F3088862B661B6BFF34F8FBFF363
:1001C0006F8F00DF00BF00BF08ED00E0EFF3098094
:1001D000BFF36F8F0F4B1A6820E9F00F106008B55E
:1001E0004FF0BF0080F31188BFF34F8FBFF36F8FC5
:1001F00000F0F0FD4FF0000080F31188BDE80840EA
:1002000019680868B0E8F00F80F30988BFF36F8FB2
:10021000704700BF00000020EFF30580704700002A
:100220000948804709480047FEE7FEE7FEE7FEE78A
:10023000FEE7FEE7FEE7FEE7FEE7FEE704480549C6
:10024000054A064B7047000041060008ED00000813
:1002500080450020804B0020804700208047002000
:10026000704770477047754600F02CF8AE460500A1
:100270006946534620F00700854618B020B5FFF7C1
:10028000DDFFBDE820404FF000064FF000074FF0C3
:1002900000084FF0000B21F00701AC46ACE8C009A4
:1002A000ACE8C009ACE8C009ACE8C0098D467047AD
:1002B00010B50446AFF300802046BDE81040FFF7BC
:1002C0005CBF00000048704720450020014918200D
:1002D000ABBEFEE726000200704700001CB5002000
:1002E000012103468022CDE900100CA10D4800F049
:1002F000BBFD0020022103468022CDE900100AA1A7
:100300000B4800F0B1FD0020032103468022CDE917
:10031000001008A1094800F0A7FD1CBD5461736BD3
:1003200031000000C90B00085461736B32000000FB
:10033000E50B00085461736B33000000010C0008EA
:1003400010B500F093F810BD00BFFEE770472DE92F
:10035000F04102460025002600200023002400274B
:1003600091F803C00CF00F0591F803C00CF0100CCD
:10037000BCF1000F03D091F802C04CEA050591F8DA
:1003800000C0BCF1000F31D0146800202BE04FF00A
:10039000010C0CFA00F3B1F800C00CEA03069E420F
:1003A00020D183004FF00F0C0CFA03F7BC4305FA81
:1003B00003FC4CEA040491F803C0BCF1280F06D1F9
:1003C0004FF0010C0CFA00FCC2F814C00AE091F8DE
:1003D00003C0BCF1480F05D14FF0010C0CFA00FC32
:1003E000C2F810C0401C0828D1D31460B1F800C076
:1003F000BCF1FF0F34DD546800202EE000F1080C42
:100400004FF0010808FA0CF3B1F800C00CEA03063B
:100410009E4221D183004FF00F0C0CFA03F7BC432E
:1004200005FA03FC4CEA040491F803C0BCF1280F60
:1004300005D100F1080C08FA0CF8C2F8148091F804
:1004400003C0BCF1480F07D100F1080C4FF00108C0
:1004500008FA0CF8C2F81080401C0828CED354606B
:10046000BDE8F0810161704700BFFEE708B50121DA
:10047000102000F03FF84FF40050ADF800001020BD
:100480008DF8030001208DF8020069461148FFF73E
:100490005EFF4FF48040ADF8000069460D48FFF75D
:1004A00056FF4FF40040ADF8000069460948FFF7D9
:1004B0004EFF4FF400510748FFF7D4FF4FF480413F
:1004C0000448FFF7CFFF4FF400410248FFF7CAFF8F
:1004D00008BD00000010014000BFFEE770470000AB
:1004E00002490143024A1160704700000000FA050A
:1004F0000CED00E029B1064A92690243044B9A616F
:1005000004E0034A92698243014B9A6170470000FC
:100510000010024010B500F001F810BD0CB500202D
:10052000019000903348006840F480303149086001
:1005300000BF3048006800F4003000900198401C73
:100540000190009818B90198B0F5A06FF1D1294831
:10055000006800F4003010B10120009001E000209C
:1005600000900098012843D12348006840F0100013
:10057000214908600846006820F00300086008462A
:10058000006840F0020008601A4840681949486055
:100590000846406848600846406840F4806048600B
:1005A0000846406820F47C1048600846406840F4E3
:1005B000E81048600846006840F08070086000BF9E
:1005C0000C48006800F000700028F9D00948406825
:1005D00020F00300074948600846406840F00200E8
:1005E000486000BF0348406800F00C000828F9D1BB
:1005F0000CBD0000001002400020024010B54FF476
:100600004070FFF76DFFFFF79BFE10BD10B500BFF8
:10061000BF2080F31188BFF34F8FBFF36F8F00BFF0
:1006200000F052FC18B14FF080500449086000BF40
:10063000002080F3118800BF10BD000004ED00E031
:1006400010B51348006840F00100114908600846E1
:100650004068104908400E494860084600680E4945
:1006600008400B4908600846006820F480200860B4
:100670000846406820F4FE0048604FF41F00886080
:10068000FFF748FF4FF000600449086010BD00000C
:10069000001002400000FFF8FFFFF6FE08ED00E04A
:1006A00000BFFEE710B5FFF7A9FFFFF717FE00F048
:1006B00057FB002010BD00002DE9F04105460E4615
:1006C0001C4807681C480068001D00F069FA50B912
:1006D0001948006890F82C100120884017490968D3
:1006E000814316480160681C38B936B11248016868
:1006F000091D134800F0BCFA1AE07C190E48006886
:100700004460BC4207D20C480168091D0D480068CE
:1007100000F094FA0CE008480168091D0A480068D6
:1007200000F08CFA09480068844201D2074804604E
:10073000BDE8F08114000020000000201800002017
:100740000C010020080000200400002030000020E0
:1007500010B5044600F098FA23480068401C22496E
:1007600008602248006840B92048046008460068D4
:1007700001280DD100F00CF90AE01D48006838B9D5
:100780001A480068C06AE16A884201D817480460C4
:1007900018480068401C1749086094F82C10012084
:1007A000884015490968084313490860E16A01EB6C
:1007B0008101124A02EB8100211D00F059FA00F07C
:1007C00075FA0B48006868B108480068C06AE16AB9
:1007D000884207D24FF0805009490860BFF34F8F1D
:1007E000BFF36F8F10BD000010000020000000203C
:1007F0001C0000202C0000201800002058000020C1
:1008000004ED00E010B516E000F03EFA0C48C068B8
:10081000C468201D00F0C4F90A480068401E094958
:10082000086009480068401E0749086000F03EFA69
:10083000204600F00BF8044800680028E4D110BD01
:10084000F8000020100000200C00002010B5044625
:10085000206B00F03BFA204600F038FA10BD000093
:1008600030B54FF48843174800F007042CB1C01D81
:1008700020F00700134C041B1B1B0246124C226085
:100880000024114D6C60D018083820F007000F4C80
:10089000206000240D4D2D686C600C4D2D682C607F
:1008A0001146441A4C60094C24680C60084D4C6891
:1008B0002C60084D4C682C604FF00044064D2C60B5
:1008C00030BD000020010020400000204800002032
:1008D000500000204C0000205400002000BFFFF713
:1008E00091FF064800680128F9D94FF0805004496B
:1008F0000860BFF34F8FBFF36F8FF0E75800002001
:1009000004ED00E02DE9FF5F80460E469146DDE9EB
:100910000E7A109CA9F10100216B01EB800B2BF0EA
:10092000070B86B1002507E0715D04F134004155E5
:10093000705D00B902E06D1C102DF5D300BF0021E1
:100940004320015502E0002084F83400052F00D335
:100950000427E762201D00F06EF904F1180000F092
:100960006AF92461C7F10500A06164620020606437
:1009700084F8480041465846039A00F0FFF820608A
:10098000BAF1000F01D0CAF80040BDE8FF9F000097
:1009900010B5002407E004EB84010F4A02EB81004C
:1009A00000F03CF9641C052CF5D30C4800F036F936
:1009B0000B4800F033F90B4800F030F90A4800F01A
:1009C0002DF90A4800F02AF904480949086004484A
:1009D0000849086010BD000058000020BC0000203D
:1009E000D0000020E4000020F80000200C010020CE
:1009F000040000200800002010B50146164800E061
:100A0000006803688B42FBD30246436813448B4261
:100A100004D143684C682344436001460A464B684E
:100A200013440468A34211D10C4C03682468A34208
:100A300008D04B680468646823444B6003681B68F3
:100A40000B6005E0054B1B680B6001E003680B6061
:100A5000884200D0016010BD400000204800002006
:100A60000A490968096809B9012100E0002121B19A
:100A70004FF0FF31064A116006E004490968C96871
:100A8000C868034A416811607047000004000020F4
:100A90003000002000BFBF2080F31188BFF34F8FCC
:100AA000BFF36F8F00BF00BFFEE700002DE9F041EC
:100AB00005464FF0000800F085F92B48006808B99A
:100AC000FFF7CEFE294800682840002847D145B1ED
:100AD000083505F0070020B105F00700C0F1080057
:100AE0000544002D3BD022480068854237D8214E6E
:100AF0003046046801E0264624686068A84202D2B5
:100B000020680028F7D118480068844227D0306850
:100B100000F10808206830606068401B102807D981
:100B200067196068401B786065603846FFF764FFAE
:100B30000F4960680968081A0D490860084600688E
:100B40000D490968884203D2094800680A490860CB
:100B5000064960680968084360600020206000F072
:100B600041FA4046BDE8F0814800002054000020D2
:100B70004C0000204000002050000020001F4FF0DB
:100B800080730360001F21F001030360001F034B0B
:100B9000036014380260203870470000950A00088E
:100BA00001460A69D1E901309860D1E90103586032
:100BB0005068884201D18868506000200861106840
:100BC000401E10601068704708E00548C06880F457
:100BD00000500349C860322000F0A8F8F5E7000093
:100BE0000010014008E00548C06880F480400349D7
:100BF000C860642000F09AF8F5E70000001001409A
:100C000009E00548C06880F400400349C8604FF41B
:100C1000FA6000F08BF8F4E70010014000F10801E1
:100C200041604FF0FF31816000F10801C160016156
:100C300000210160704700210161704710B5024634
:100C40000B685C1C0CB9106907E002F1080000E0B9
:100C50004068446824689C42FAD944684C604C68F7
:100C6000A160886041600A611468641C146010BD52
:100C700042684A6093688B6093685960916008612C
:100C800003685B1C0360704700BFBF2080F31188BE
:100C9000BFF34F8FBFF36F8F00BF03480068401C46
:100CA00001490860704700003C00002006480068C9
:100CB000401E054908600846006820B9002080F3FE
:100CC000118800BF00BF70473C00002070B5064689
:100CD0003546D6B1083D2C460C4960680968084085
:100CE00098B1206888B909496068096888436060DC
:100CF00000F068F80649606809680844044908601B
:100D00002046FFF779FE00F06DF970BD5400002019
:100D10004C00002000204FF0E0210861886102486B
:100D200048610720086170473F19010070B504460B
:100D3000002544B100F046F800212046FFF7BCFC36
:100D400000F050F905463DB94FF080500349086066
:100D5000BFF34F8FBFF36F8F70BD000004ED00E055
:100D60001CB5114800210B468022CDE900100FA1CF
:100D7000104800F079F80446012C14D100BFBF20C0
:100D800080F31188BFF34F8FBFF36F8F00BF4FF019
:100D9000FF3009490860012008490860002008491F
:100DA000086000F047F81CBD3400002049444C4561
:100DB00000000000DD080008300000201C000020BA
:100DC0001400002002480068401C01490860704778
:100DD000380000201248006818B10120114908604D
:100DE0001DE000200F4908600F480068B0FA80F04D
:100DF000C0F11F0101EB81020C4B03EB8200426842
:100E00005268426000F108024368934202D142688E
:100E1000526842604268D268054B1A6000BF704752
:100E20003800002024000020180000205800002076
:100E30000000002010B50A48006840F47F0008490F
:100E400008600846006840F07F400860FFF762FFD6
:100E5000002004490860FFF7A9F9002010BD000038
:100E600020ED00E03C0000202DE9FF4F85B08046DA
:100E700089461746DDE912ABB800FFF717FE0646B4
:100E800056B14C20FFF712FE04460CB1266304E075
:100E90003046FFF71BFF00E000247CB10020CDE9C5
:100EA00000ABCDE902403A4649464046089BFFF771
:100EB00029FD2046FFF74CFC012501E04FF0FF35EE
:100EC000284609B0BDE8F08F2DE9F04100273A48E7
:100ED0000068002863D139480068451C3748056020
:100EE0008DB93748D0F8008036480068344908602A
:100EF0003448C0F8008034480068401C324908601B
:100F0000FFF7AEFD00BF3148006885423BD300BF0C
:100F10002B480068006808B9012000E0002020B1DB
:100F20004FF0FF30294908602CE025480068C06870
:100F3000C4686668B54202D22448066022E0201DDB
:100F4000FFF72EFEA06A18B104F11800FFF728FE83
:100F500094F82C10012088401D49096808431C4959
:100F60000860E16A01EB81011A4A02EB8100211D50
:100F7000FFF77EFE1849E06A0968C96A8842C7D34C
:100F80000127C5E700BF14480068C06A00EB800075
:100F9000104951F82000012800D9012704E00F482A
:100FA0000068401C0D4908600D48006800B1012729
:100FB0003846BDE8F0810000380000201400002011
:100FC000040000200800002028000020300000203D
:100FD0001800002058000020000000202000002001
:100FE0002400002070B500240026FFF74DFE2E4897
:100FF0000068401E2C4908600846006800284FD150
:101000002A48006800284BD024E02948C068C468FA
:1010100004F11800FFF7C4FD201DFFF7C1FD94F88F
:101020002C100120884023490968084321490860A1
:10103000E16A01EB8101204A02EB8100211DFFF7EB
:1010400017FE1E49E06A0968C96A884202D3012076
:101050001B4908601648006808B9012000E000201C
:101060000028D2D00CB1FFF7FBFC1648056865B12B
:1010700000BFFFF729FF10B10120114908606D1E64
:10108000002DF6D100200F4908600D48006838B1E6
:10109000012630070C490860BFF34F8FBFF36F8FF5
:1010A000FFF704FE304670BD38000020100000201D
:1010B000E40000201800002058000020000000205C
:1010C000240000202000002004ED00E0EC100008C7
:1010D000000000205800000028010008441100080A
:1010E00058000020284B00004401000800000000C8
:1010F00000000000000000000000000000000000F0
:1011000000000000000000000000000000000000DF
:1011100000000000000000000000000000000000CF
:101120000000000000000000AAAAAAAA0000000017
:1011300000000000000000000000000000000000AF
:0411400000000000AB
:04000005080000ED02
:00000001FF
